{
  "contractName": "PolarPals",
  "abi": [
    {
      "inputs": [],
      "stateMutability": "nonpayable",
      "type": "constructor"
    },
    {
      "anonymous": false,
      "inputs": [
        {
          "indexed": true,
          "internalType": "address",
          "name": "owner",
          "type": "address"
        },
        {
          "indexed": true,
          "internalType": "address",
          "name": "approved",
          "type": "address"
        },
        {
          "indexed": true,
          "internalType": "uint256",
          "name": "tokenId",
          "type": "uint256"
        }
      ],
      "name": "Approval",
      "type": "event"
    },
    {
      "anonymous": false,
      "inputs": [
        {
          "indexed": true,
          "internalType": "address",
          "name": "owner",
          "type": "address"
        },
        {
          "indexed": true,
          "internalType": "address",
          "name": "operator",
          "type": "address"
        },
        {
          "indexed": false,
          "internalType": "bool",
          "name": "approved",
          "type": "bool"
        }
      ],
      "name": "ApprovalForAll",
      "type": "event"
    },
    {
      "anonymous": false,
      "inputs": [
        {
          "indexed": true,
          "internalType": "uint256",
          "name": "_tokenId",
          "type": "uint256"
        },
        {
          "indexed": false,
          "internalType": "string",
          "name": "_name",
          "type": "string"
        },
        {
          "indexed": false,
          "internalType": "string",
          "name": "_description",
          "type": "string"
        }
      ],
      "name": "NameAndDescriptionChanged",
      "type": "event"
    },
    {
      "anonymous": false,
      "inputs": [
        {
          "indexed": true,
          "internalType": "address",
          "name": "previousOwner",
          "type": "address"
        },
        {
          "indexed": true,
          "internalType": "address",
          "name": "newOwner",
          "type": "address"
        }
      ],
      "name": "OwnershipTransferred",
      "type": "event"
    },
    {
      "anonymous": false,
      "inputs": [
        {
          "indexed": true,
          "internalType": "address",
          "name": "from",
          "type": "address"
        },
        {
          "indexed": true,
          "internalType": "address",
          "name": "to",
          "type": "address"
        },
        {
          "indexed": true,
          "internalType": "uint256",
          "name": "tokenId",
          "type": "uint256"
        }
      ],
      "name": "Transfer",
      "type": "event"
    },
    {
      "inputs": [],
      "name": "AMOUNT_RESERVED",
      "outputs": [
        {
          "internalType": "uint256",
          "name": "",
          "type": "uint256"
        }
      ],
      "stateMutability": "view",
      "type": "function"
    },
    {
      "inputs": [],
      "name": "FLUF_PRICE",
      "outputs": [
        {
          "internalType": "uint256",
          "name": "",
          "type": "uint256"
        }
      ],
      "stateMutability": "view",
      "type": "function"
    },
    {
      "inputs": [],
      "name": "MAX_FLUFS",
      "outputs": [
        {
          "internalType": "uint256",
          "name": "",
          "type": "uint256"
        }
      ],
      "stateMutability": "view",
      "type": "function"
    },
    {
      "inputs": [],
      "name": "MAX_PURCHASE",
      "outputs": [
        {
          "internalType": "uint256",
          "name": "",
          "type": "uint256"
        }
      ],
      "stateMutability": "view",
      "type": "function"
    },
    {
      "inputs": [],
      "name": "RENAME_PRICE",
      "outputs": [
        {
          "internalType": "uint256",
          "name": "",
          "type": "uint256"
        }
      ],
      "stateMutability": "view",
      "type": "function"
    },
    {
      "inputs": [],
      "name": "TOKEN_URI_BASE",
      "outputs": [
        {
          "internalType": "string",
          "name": "",
          "type": "string"
        }
      ],
      "stateMutability": "view",
      "type": "function"
    },
    {
      "inputs": [
        {
          "internalType": "address",
          "name": "to",
          "type": "address"
        },
        {
          "internalType": "uint256",
          "name": "tokenId",
          "type": "uint256"
        }
      ],
      "name": "approve",
      "outputs": [],
      "stateMutability": "nonpayable",
      "type": "function"
    },
    {
      "inputs": [
        {
          "internalType": "address",
          "name": "owner",
          "type": "address"
        }
      ],
      "name": "balanceOf",
      "outputs": [
        {
          "internalType": "uint256",
          "name": "",
          "type": "uint256"
        }
      ],
      "stateMutability": "view",
      "type": "function"
    },
    {
      "inputs": [
        {
          "internalType": "uint256",
          "name": "tokenId",
          "type": "uint256"
        }
      ],
      "name": "getApproved",
      "outputs": [
        {
          "internalType": "address",
          "name": "",
          "type": "address"
        }
      ],
      "stateMutability": "view",
      "type": "function"
    },
    {
      "inputs": [
        {
          "internalType": "address",
          "name": "owner",
          "type": "address"
        },
        {
          "internalType": "address",
          "name": "operator",
          "type": "address"
        }
      ],
      "name": "isApprovedForAll",
      "outputs": [
        {
          "internalType": "bool",
          "name": "",
          "type": "bool"
        }
      ],
      "stateMutability": "view",
      "type": "function"
    },
    {
      "inputs": [],
      "name": "name",
      "outputs": [
        {
          "internalType": "string",
          "name": "",
          "type": "string"
        }
      ],
      "stateMutability": "view",
      "type": "function"
    },
    {
      "inputs": [],
      "name": "owner",
      "outputs": [
        {
          "internalType": "address",
          "name": "",
          "type": "address"
        }
      ],
      "stateMutability": "view",
      "type": "function"
    },
    {
      "inputs": [
        {
          "internalType": "uint256",
          "name": "tokenId",
          "type": "uint256"
        }
      ],
      "name": "ownerOf",
      "outputs": [
        {
          "internalType": "address",
          "name": "",
          "type": "address"
        }
      ],
      "stateMutability": "view",
      "type": "function"
    },
    {
      "inputs": [],
      "name": "renounceOwnership",
      "outputs": [],
      "stateMutability": "nonpayable",
      "type": "function"
    },
    {
      "inputs": [
        {
          "internalType": "address",
          "name": "from",
          "type": "address"
        },
        {
          "internalType": "address",
          "name": "to",
          "type": "address"
        },
        {
          "internalType": "uint256",
          "name": "tokenId",
          "type": "uint256"
        }
      ],
      "name": "safeTransferFrom",
      "outputs": [],
      "stateMutability": "nonpayable",
      "type": "function"
    },
    {
      "inputs": [
        {
          "internalType": "address",
          "name": "from",
          "type": "address"
        },
        {
          "internalType": "address",
          "name": "to",
          "type": "address"
        },
        {
          "internalType": "uint256",
          "name": "tokenId",
          "type": "uint256"
        },
        {
          "internalType": "bytes",
          "name": "_data",
          "type": "bytes"
        }
      ],
      "name": "safeTransferFrom",
      "outputs": [],
      "stateMutability": "nonpayable",
      "type": "function"
    },
    {
      "inputs": [
        {
          "internalType": "address",
          "name": "operator",
          "type": "address"
        },
        {
          "internalType": "bool",
          "name": "approved",
          "type": "bool"
        }
      ],
      "name": "setApprovalForAll",
      "outputs": [],
      "stateMutability": "nonpayable",
      "type": "function"
    },
    {
      "inputs": [],
      "name": "symbol",
      "outputs": [
        {
          "internalType": "string",
          "name": "",
          "type": "string"
        }
      ],
      "stateMutability": "view",
      "type": "function"
    },
    {
      "inputs": [
        {
          "internalType": "uint256",
          "name": "index",
          "type": "uint256"
        }
      ],
      "name": "tokenByIndex",
      "outputs": [
        {
          "internalType": "uint256",
          "name": "",
          "type": "uint256"
        }
      ],
      "stateMutability": "view",
      "type": "function"
    },
    {
      "inputs": [
        {
          "internalType": "address",
          "name": "owner",
          "type": "address"
        },
        {
          "internalType": "uint256",
          "name": "index",
          "type": "uint256"
        }
      ],
      "name": "tokenOfOwnerByIndex",
      "outputs": [
        {
          "internalType": "uint256",
          "name": "",
          "type": "uint256"
        }
      ],
      "stateMutability": "view",
      "type": "function"
    },
    {
      "inputs": [],
      "name": "totalSupply",
      "outputs": [
        {
          "internalType": "uint256",
          "name": "",
          "type": "uint256"
        }
      ],
      "stateMutability": "view",
      "type": "function"
    },
    {
      "inputs": [
        {
          "internalType": "address",
          "name": "from",
          "type": "address"
        },
        {
          "internalType": "address",
          "name": "to",
          "type": "address"
        },
        {
          "internalType": "uint256",
          "name": "tokenId",
          "type": "uint256"
        }
      ],
      "name": "transferFrom",
      "outputs": [],
      "stateMutability": "nonpayable",
      "type": "function"
    },
    {
      "inputs": [
        {
          "internalType": "address",
          "name": "newOwner",
          "type": "address"
        }
      ],
      "name": "transferOwnership",
      "outputs": [],
      "stateMutability": "nonpayable",
      "type": "function"
    },
    {
      "inputs": [
        {
          "internalType": "address",
          "name": "reserveAddress",
          "type": "address"
        }
      ],
      "name": "setStartingIndexAndMintReserve",
      "outputs": [],
      "stateMutability": "nonpayable",
      "type": "function"
    },
    {
      "inputs": [
        {
          "internalType": "string",
          "name": "immutableIPFSBucket_",
          "type": "string"
        }
      ],
      "name": "setImmutableIPFSBucket",
      "outputs": [],
      "stateMutability": "nonpayable",
      "type": "function"
    },
    {
      "inputs": [
        {
          "internalType": "string",
          "name": "mutableIPFSBucket_",
          "type": "string"
        }
      ],
      "name": "setMutableIPFSBucket",
      "outputs": [],
      "stateMutability": "nonpayable",
      "type": "function"
    },
    {
      "inputs": [
        {
          "internalType": "uint256",
          "name": "tokenId",
          "type": "uint256"
        },
        {
          "internalType": "string",
          "name": "newName",
          "type": "string"
        },
        {
          "internalType": "string",
          "name": "newDescription",
          "type": "string"
        }
      ],
      "name": "changeNameAndDescription",
      "outputs": [],
      "stateMutability": "payable",
      "type": "function"
    },
    {
      "inputs": [],
      "name": "baseTokenURI",
      "outputs": [
        {
          "internalType": "string",
          "name": "",
          "type": "string"
        }
      ],
      "stateMutability": "view",
      "type": "function"
    },
    {
      "inputs": [],
      "name": "state",
      "outputs": [
        {
          "internalType": "enum PolarPals.State",
          "name": "",
          "type": "uint8"
        }
      ],
      "stateMutability": "view",
      "type": "function"
    },
    {
      "inputs": [],
      "name": "immutableIPFSBucket",
      "outputs": [
        {
          "internalType": "string",
          "name": "",
          "type": "string"
        }
      ],
      "stateMutability": "view",
      "type": "function"
    },
    {
      "inputs": [],
      "name": "mutableIPFSBucket",
      "outputs": [
        {
          "internalType": "string",
          "name": "",
          "type": "string"
        }
      ],
      "stateMutability": "view",
      "type": "function"
    },
    {
      "inputs": [
        {
          "internalType": "uint256",
          "name": "tokenId",
          "type": "uint256"
        }
      ],
      "name": "tokenURI",
      "outputs": [
        {
          "internalType": "string",
          "name": "",
          "type": "string"
        }
      ],
      "stateMutability": "view",
      "type": "function"
    },
    {
      "inputs": [
        {
          "internalType": "bytes4",
          "name": "interfaceId",
          "type": "bytes4"
        }
      ],
      "name": "supportsInterface",
      "outputs": [
        {
          "internalType": "bool",
          "name": "",
          "type": "bool"
        }
      ],
      "stateMutability": "view",
      "type": "function"
    },
    {
      "inputs": [],
      "name": "startPreParty",
      "outputs": [],
      "stateMutability": "nonpayable",
      "type": "function"
    },
    {
      "inputs": [],
      "name": "setStateToParty",
      "outputs": [],
      "stateMutability": "nonpayable",
      "type": "function"
    },
    {
      "inputs": [
        {
          "internalType": "address",
          "name": "human",
          "type": "address"
        },
        {
          "internalType": "uint256",
          "name": "amountOfFlufs",
          "type": "uint256"
        }
      ],
      "name": "mintFluf",
      "outputs": [
        {
          "internalType": "uint256",
          "name": "",
          "type": "uint256"
        }
      ],
      "stateMutability": "payable",
      "type": "function"
    },
    {
      "inputs": [
        {
          "internalType": "address payable",
          "name": "payee",
          "type": "address"
        }
      ],
      "name": "withdrawAllEth",
      "outputs": [],
      "stateMutability": "nonpayable",
      "type": "function"
    },
    {
      "inputs": [
        {
          "internalType": "address",
          "name": "human",
          "type": "address"
        },
        {
          "internalType": "uint256",
          "name": "amountOfFlufs",
          "type": "uint256"
        }
      ],
      "name": "authoriseFluf",
      "outputs": [],
      "stateMutability": "nonpayable",
      "type": "function"
    },
    {
      "inputs": [
        {
          "internalType": "address[]",
          "name": "humans",
          "type": "address[]"
        },
        {
          "internalType": "uint256",
          "name": "amountOfFlufs",
          "type": "uint256"
        }
      ],
      "name": "authoriseFlufBatch",
      "outputs": [],
      "stateMutability": "nonpayable",
      "type": "function"
    }
  ],
  "bytecode": "0x60806040523480156200001157600080fd5b506040518060400160405280600981526020017f506f6c617250616c7300000000000000000000000000000000000000000000008152506040518060400160405280600481526020017f50414c530000000000000000000000000000000000000000000000000000000081525081600090805190602001906200009692919062000212565b508060019080519060200190620000af92919062000212565b505050620000e4620000cf62000144640100000000026401000000009004565b6200014c640100000000026401000000009004565b6001600c819055506000600f60006101000a81548160ff0219169083600281111562000139577f4e487b7100000000000000000000000000000000000000000000000000000000600052602160045260246000fd5b021790555062000327565b600033905090565b6000600b60009054906101000a900473ffffffffffffffffffffffffffffffffffffffff16905081600b60006101000a81548173ffffffffffffffffffffffffffffffffffffffff021916908373ffffffffffffffffffffffffffffffffffffffff1602179055508173ffffffffffffffffffffffffffffffffffffffff168173ffffffffffffffffffffffffffffffffffffffff167f8be0079c531659141344cd1fd0a4f28419497f9722a3daafe3b4186f6b6457e060405160405180910390a35050565b8280546200022090620002c2565b90600052602060002090601f01602090048101928262000244576000855562000290565b82601f106200025f57805160ff191683800117855562000290565b8280016001018555821562000290579182015b828111156200028f57825182559160200191906001019062000272565b5b5090506200029f9190620002a3565b5090565b5b80821115620002be576000816000905550600101620002a4565b5090565b60006002820490506001821680620002db57607f821691505b60208210811415620002f257620002f1620002f8565b5b50919050565b7f4e487b7100000000000000000000000000000000000000000000000000000000600052602260045260246000fd5b6152ed80620003376000396000f3fe60806040526004361061024d576000357c0100000000000000000000000000000000000000000000000000000000900480637146bd081161014b578063b88d4fde116100c8578063d46d79bb1161008c578063d46d79bb1461082c578063d547cfb714610855578063d773154f14610880578063e985e9c5146108ab578063f2fde38b146108e85761024d565b8063b88d4fde14610747578063c19d93fb14610770578063c41e2e481461079b578063c87b56dd146107c6578063d354e23e146108035761024d565b806395d89b411161010f57806395d89b41146106885780639f96cd25146106b3578063a22cb465146106ca578063a55a5439146106f3578063a7e645021461071c5761024d565b80637146bd08146105c2578063715018a6146105ed5780637241c0b21461060457806373b34489146106345780638da5cb5b1461065d5761024d565b80632c1e5b83116101d95780634f6ccce71161019d5780634f6ccce7146104c45780635430cd6d146105015780635efb942c1461052c5780636352211e1461054857806370a08231146105855761024d565b80632c1e5b83146103df5780632f745c59146104085780633de8bf66146104455780633f1cccf31461047057806342842e0e1461049b5761024d565b8063095ea7b311610220578063095ea7b314610320578063157c42291461034957806318160ddd146103605780631e7533601461038b57806323b872dd146103b65761024d565b806301ffc9a71461025257806305be3f381461028f57806306fdde03146102b8578063081812fc146102e3575b600080fd5b34801561025e57600080fd5b50610279600480360381019061027491906139a6565b610911565b604051610286919061409d565b60405180910390f35b34801561029b57600080fd5b506102b660048036038101906102b191906139f8565b610923565b005b3480156102c457600080fd5b506102cd610a0a565b6040516102da91906140d3565b60405180910390f35b3480156102ef57600080fd5b5061030a60048036038101906103059190613a39565b610a9c565b6040516103179190614036565b60405180910390f35b34801561032c57600080fd5b5061034760048036038101906103429190613916565b610b21565b005b34801561035557600080fd5b5061035e610c39565b005b34801561036c57600080fd5b50610375610d94565b60405161038291906144ec565b60405180910390f35b34801561039757600080fd5b506103a0610da1565b6040516103ad91906140d3565b60405180910390f35b3480156103c257600080fd5b506103dd60048036038101906103d89190613810565b610e33565b005b3480156103eb57600080fd5b50610406600480360381019061040191906139f8565b610e93565b005b34801561041457600080fd5b5061042f600480360381019061042a9190613916565b610f29565b60405161043c91906144ec565b60405180910390f35b34801561045157600080fd5b5061045a610fce565b60405161046791906144ec565b60405180910390f35b34801561047c57600080fd5b50610485610fd4565b60405161049291906144ec565b60405180910390f35b3480156104a757600080fd5b506104c260048036038101906104bd9190613810565b610fd9565b005b3480156104d057600080fd5b506104eb60048036038101906104e69190613a39565b610ff9565b6040516104f891906144ec565b60405180910390f35b34801561050d57600080fd5b50610516611090565b60405161052391906140d3565b60405180910390f35b61054660048036038101906105419190613a62565b6110ac565b005b34801561055457600080fd5b5061056f600480360381019061056a9190613a39565b611258565b60405161057c9190614036565b60405180910390f35b34801561059157600080fd5b506105ac60048036038101906105a79190613782565b61130a565b6040516105b991906144ec565b60405180910390f35b3480156105ce57600080fd5b506105d76113c2565b6040516105e491906144ec565b60405180910390f35b3480156105f957600080fd5b506106026113c7565b005b61061e60048036038101906106199190613916565b61144f565b60405161062b91906144ec565b60405180910390f35b34801561064057600080fd5b5061065b60048036038101906106569190613916565b611836565b005b34801561066957600080fd5b5061067261190c565b60405161067f9190614036565b60405180910390f35b34801561069457600080fd5b5061069d611936565b6040516106aa91906140d3565b60405180910390f35b3480156106bf57600080fd5b506106c86119c8565b005b3480156106d657600080fd5b506106f160048036038101906106ec91906138da565b611a97565b005b3480156106ff57600080fd5b5061071a60048036038101906107159190613782565b611c18565b005b34801561072857600080fd5b50610731611d12565b60405161073e91906144ec565b60405180910390f35b34801561075357600080fd5b5061076e6004803603810190610769919061385f565b611d1e565b005b34801561077c57600080fd5b50610785611d80565b60405161079291906140b8565b60405180910390f35b3480156107a757600080fd5b506107b0611d97565b6040516107bd91906140d3565b60405180910390f35b3480156107d257600080fd5b506107ed60048036038101906107e89190613a39565b611e29565b6040516107fa91906140d3565b60405180910390f35b34801561080f57600080fd5b5061082a60048036038101906108259190613952565b611e63565b005b34801561083857600080fd5b50610853600480360381019061084e91906137ab565b611f53565b005b34801561086157600080fd5b5061086a612012565b60405161087791906140d3565b60405180910390f35b34801561088c57600080fd5b50610895612032565b6040516108a291906144ec565b60405180910390f35b3480156108b757600080fd5b506108d260048036038101906108cd91906137d4565b61203d565b6040516108df919061409d565b60405180910390f35b3480156108f457600080fd5b5061090f600480360381019061090a9190613782565b6120d1565b005b600061091c826121c9565b9050919050565b61092b612243565b73ffffffffffffffffffffffffffffffffffffffff1661094961190c565b73ffffffffffffffffffffffffffffffffffffffff161461099f576040517f08c379a0000000000000000000000000000000000000000000000000000000008152600401610996906143ac565b60405180910390fd5b6000601080546109ae90614817565b9050146109f0576040517f08c379a00000000000000000000000000000000000000000000000000000000081526004016109e79061418c565b60405180910390fd5b8060109080519060200190610a069291906134fb565b5050565b606060008054610a1990614817565b80601f0160208091040260200160405190810160405280929190818152602001828054610a4590614817565b8015610a925780601f10610a6757610100808354040283529160200191610a92565b820191906000526020600020905b815481529060010190602001808311610a7557829003601f168201915b5050505050905090565b6000610aa78261224b565b610ae6576040517f08c379a0000000000000000000000000000000000000000000000000000000008152600401610add9061436c565b60405180910390fd5b6004600083815260200190815260200160002060009054906101000a900473ffffffffffffffffffffffffffffffffffffffff169050919050565b6000610b2c82611258565b90508073ffffffffffffffffffffffffffffffffffffffff168373ffffffffffffffffffffffffffffffffffffffff161415610b9d576040517f08c379a0000000000000000000000000000000000000000000000000000000008152600401610b94906143ec565b60405180910390fd5b8073ffffffffffffffffffffffffffffffffffffffff16610bbc612243565b73ffffffffffffffffffffffffffffffffffffffff161480610beb5750610bea81610be5612243565b61203d565b5b610c2a576040517f08c379a0000000000000000000000000000000000000000000000000000000008152600401610c21906142cc565b60405180910390fd5b610c3483836122b7565b505050565b610c41612243565b73ffffffffffffffffffffffffffffffffffffffff16610c5f61190c565b73ffffffffffffffffffffffffffffffffffffffff1614610cb5576040517f08c379a0000000000000000000000000000000000000000000000000000000008152600401610cac906143ac565b60405180910390fd5b60006002811115610cef577f4e487b7100000000000000000000000000000000000000000000000000000000600052602160045260246000fd5b600f60009054906101000a900460ff166002811115610d37577f4e487b7100000000000000000000000000000000000000000000000000000000600052602160045260246000fd5b14610d4157600080fd5b6001600f60006101000a81548160ff02191690836002811115610d8d577f4e487b7100000000000000000000000000000000000000000000000000000000600052602160045260246000fd5b0217905550565b6000600880549050905090565b606060108054610db090614817565b80601f0160208091040260200160405190810160405280929190818152602001828054610ddc90614817565b8015610e295780601f10610dfe57610100808354040283529160200191610e29565b820191906000526020600020905b815481529060010190602001808311610e0c57829003601f168201915b5050505050905090565b610e44610e3e612243565b82612370565b610e83576040517f08c379a0000000000000000000000000000000000000000000000000000000008152600401610e7a9061440c565b60405180910390fd5b610e8e83838361244e565b505050565b610e9b612243565b73ffffffffffffffffffffffffffffffffffffffff16610eb961190c565b73ffffffffffffffffffffffffffffffffffffffff1614610f0f576040517f08c379a0000000000000000000000000000000000000000000000000000000008152600401610f06906143ac565b60405180910390fd5b8060119080519060200190610f259291906134fb565b5050565b6000610f348361130a565b8210610f75576040517f08c379a0000000000000000000000000000000000000000000000000000000008152600401610f6c9061414c565b60405180910390fd5b600660008473ffffffffffffffffffffffffffffffffffffffff1673ffffffffffffffffffffffffffffffffffffffff168152602001908152602001600020600083815260200190815260200160002054905092915050565b61271081565b607881565b610ff483838360405180602001604052806000815250611d1e565b505050565b6000611003610d94565b8210611044576040517f08c379a000000000000000000000000000000000000000000000000000000000815260040161103b9061446c565b60405180910390fd5b6008828154811061107e577f4e487b7100000000000000000000000000000000000000000000000000000000600052603260045260246000fd5b90600052602060002001549050919050565b6040518060600160405280602781526020016152916027913981565b60006110b784611258565b90508073ffffffffffffffffffffffffffffffffffffffff166110d8612243565b73ffffffffffffffffffffffffffffffffffffffff161461112e576040517f08c379a0000000000000000000000000000000000000000000000000000000008152600401611125906141ec565b60405180910390fd5b6000349050600e600086815260200190815260200160002060009054906101000a900460ff16156111a757661ff973cafa800081146111a2576040517f08c379a0000000000000000000000000000000000000000000000000000000008152600401611199906144cc565b60405180910390fd5b611217565b600081146111ea576040517f08c379a00000000000000000000000000000000000000000000000000000000081526004016111e19061412c565b60405180910390fd5b6001600e600087815260200190815260200160002060006101000a81548160ff0219169083151502179055505b847f67fa4071238ddc656edd6cde213c95768186b64a5b0c2a20fb2485fc0d49b54885856040516112499291906140f5565b60405180910390a25050505050565b6000806002600084815260200190815260200160002060009054906101000a900473ffffffffffffffffffffffffffffffffffffffff169050600073ffffffffffffffffffffffffffffffffffffffff168173ffffffffffffffffffffffffffffffffffffffff161415611301576040517f08c379a00000000000000000000000000000000000000000000000000000000081526004016112f89061430c565b60405180910390fd5b80915050919050565b60008073ffffffffffffffffffffffffffffffffffffffff168273ffffffffffffffffffffffffffffffffffffffff16141561137b576040517f08c379a0000000000000000000000000000000000000000000000000000000008152600401611372906142ec565b60405180910390fd5b600360008373ffffffffffffffffffffffffffffffffffffffff1673ffffffffffffffffffffffffffffffffffffffff168152602001908152602001600020549050919050565b600681565b6113cf612243565b73ffffffffffffffffffffffffffffffffffffffff166113ed61190c565b73ffffffffffffffffffffffffffffffffffffffff1614611443576040517f08c379a000000000000000000000000000000000000000000000000000000000815260040161143a906143ac565b60405180910390fd5b61144d60006126aa565b565b60006002600c541415611497576040517f08c379a000000000000000000000000000000000000000000000000000000000815260040161148e906144ac565b60405180910390fd5b6002600c81905550600060028111156114d9577f4e487b7100000000000000000000000000000000000000000000000000000000600052602160045260246000fd5b600f60009054906101000a900460ff166002811115611521577f4e487b7100000000000000000000000000000000000000000000000000000000600052602160045260246000fd5b1415611562576040517f08c379a00000000000000000000000000000000000000000000000000000000081526004016115599061438c565b60405180910390fd5b60068211156115a6576040517f08c379a000000000000000000000000000000000000000000000000000000000815260040161159d9061448c565b60405180910390fd5b6127106115c3836115b5610d94565b61277090919063ffffffff16565b1115611604576040517f08c379a00000000000000000000000000000000000000000000000000000000081526004016115fb9061432c565b60405180910390fd5b346116208367013fbe85edc9000061278690919063ffffffff16565b1115611661576040517f08c379a00000000000000000000000000000000000000000000000000000000081526004016116589061442c565b60405180910390fd5b6001600281111561169b577f4e487b7100000000000000000000000000000000000000000000000000000000600052602160045260246000fd5b600f60009054906101000a900460ff1660028111156116e3577f4e487b7100000000000000000000000000000000000000000000000000000000600052602160045260246000fd5b14156117c25781600d60008573ffffffffffffffffffffffffffffffffffffffff1673ffffffffffffffffffffffffffffffffffffffff16815260200190815260200160002054101561176b576040517f08c379a00000000000000000000000000000000000000000000000000000000081526004016117629061420c565b60405180910390fd5b81600d60008573ffffffffffffffffffffffffffffffffffffffff1673ffffffffffffffffffffffffffffffffffffffff16815260200190815260200160002060008282546117ba91906146e9565b925050819055505b6000601254905060005b83811015611823576117e08560125461279c565b61180a6127106117fc600160125461277090919063ffffffff16565b6127ba90919063ffffffff16565b601281905550808061181b9061487a565b9150506117cc565b50809150506001600c8190555092915050565b61183e612243565b73ffffffffffffffffffffffffffffffffffffffff1661185c61190c565b73ffffffffffffffffffffffffffffffffffffffff16146118b2576040517f08c379a00000000000000000000000000000000000000000000000000000000081526004016118a9906143ac565b60405180910390fd5b80600d60008473ffffffffffffffffffffffffffffffffffffffff1673ffffffffffffffffffffffffffffffffffffffff16815260200190815260200160002060008282546119019190614608565b925050819055505050565b6000600b60009054906101000a900473ffffffffffffffffffffffffffffffffffffffff16905090565b60606001805461194590614817565b80601f016020809104026020016040519081016040528092919081815260200182805461197190614817565b80156119be5780601f10611993576101008083540402835291602001916119be565b820191906000526020600020905b8154815290600101906020018083116119a157829003601f168201915b5050505050905090565b6119d0612243565b73ffffffffffffffffffffffffffffffffffffffff166119ee61190c565b73ffffffffffffffffffffffffffffffffffffffff1614611a44576040517f08c379a0000000000000000000000000000000000000000000000000000000008152600401611a3b906143ac565b60405180910390fd5b6002600f60006101000a81548160ff02191690836002811115611a90577f4e487b7100000000000000000000000000000000000000000000000000000000600052602160045260246000fd5b0217905550565b611a9f612243565b73ffffffffffffffffffffffffffffffffffffffff168273ffffffffffffffffffffffffffffffffffffffff161415611b0d576040517f08c379a0000000000000000000000000000000000000000000000000000000008152600401611b049061424c565b60405180910390fd5b8060056000611b1a612243565b73ffffffffffffffffffffffffffffffffffffffff1673ffffffffffffffffffffffffffffffffffffffff16815260200190815260200160002060008473ffffffffffffffffffffffffffffffffffffffff1673ffffffffffffffffffffffffffffffffffffffff16815260200190815260200160002060006101000a81548160ff0219169083151502179055508173ffffffffffffffffffffffffffffffffffffffff16611bc7612243565b73ffffffffffffffffffffffffffffffffffffffff167f17307eab39ab6107e8899845ad3d59bd9653f200f220920489ca2b5937696c3183604051611c0c919061409d565b60405180910390a35050565b600060135414611c5d576040517f08c379a0000000000000000000000000000000000000000000000000000000008152600401611c549061444c565b60405180910390fd5b612710600143611c6d91906146e9565b4060019004611c7c91906148ed565b60138190555060006013541415611caa57611ca3600160135461277090919063ffffffff16565b6013819055505b60135460128190555060005b6078811015611d0e57611ccb8260125461279c565b611cf5612710611ce7600160125461277090919063ffffffff16565b6127ba90919063ffffffff16565b6012819055508080611d069061487a565b915050611cb6565b5050565b67013fbe85edc9000081565b611d2f611d29612243565b83612370565b611d6e576040517f08c379a0000000000000000000000000000000000000000000000000000000008152600401611d659061440c565b60405180910390fd5b611d7a848484846127d0565b50505050565b6000600f60009054906101000a900460ff16905090565b606060118054611da690614817565b80601f0160208091040260200160405190810160405280929190818152602001828054611dd290614817565b8015611e1f5780601f10611df457610100808354040283529160200191611e1f565b820191906000526020600020905b815481529060010190602001808311611e0257829003601f168201915b5050505050905090565b6060611e33612012565b611e3c8361282c565b604051602001611e4d929190613ffd565b6040516020818303038152906040529050919050565b611e6b612243565b73ffffffffffffffffffffffffffffffffffffffff16611e8961190c565b73ffffffffffffffffffffffffffffffffffffffff1614611edf576040517f08c379a0000000000000000000000000000000000000000000000000000000008152600401611ed6906143ac565b60405180910390fd5b60005b82518160ff161015611f4e57611f3b838260ff1681518110611f2d577f4e487b7100000000000000000000000000000000000000000000000000000000600052603260045260246000fd5b602002602001015183611836565b8080611f46906148c3565b915050611ee2565b505050565b611f5b612243565b73ffffffffffffffffffffffffffffffffffffffff16611f7961190c565b73ffffffffffffffffffffffffffffffffffffffff1614611fcf576040517f08c379a0000000000000000000000000000000000000000000000000000000008152600401611fc6906143ac565b60405180910390fd5b61200f3073ffffffffffffffffffffffffffffffffffffffff16318273ffffffffffffffffffffffffffffffffffffffff166129f890919063ffffffff16565b50565b606060405180606001604052806027815260200161529160279139905090565b661ff973cafa800081565b6000600560008473ffffffffffffffffffffffffffffffffffffffff1673ffffffffffffffffffffffffffffffffffffffff16815260200190815260200160002060008373ffffffffffffffffffffffffffffffffffffffff1673ffffffffffffffffffffffffffffffffffffffff16815260200190815260200160002060009054906101000a900460ff16905092915050565b6120d9612243565b73ffffffffffffffffffffffffffffffffffffffff166120f761190c565b73ffffffffffffffffffffffffffffffffffffffff161461214d576040517f08c379a0000000000000000000000000000000000000000000000000000000008152600401612144906143ac565b60405180910390fd5b600073ffffffffffffffffffffffffffffffffffffffff168173ffffffffffffffffffffffffffffffffffffffff1614156121bd576040517f08c379a00000000000000000000000000000000000000000000000000000000081526004016121b4906141ac565b60405180910390fd5b6121c6816126aa565b50565b60007f780e9d63000000000000000000000000000000000000000000000000000000007bffffffffffffffffffffffffffffffffffffffffffffffffffffffff1916827bffffffffffffffffffffffffffffffffffffffffffffffffffffffff1916148061223c575061223b82612b03565b5b9050919050565b600033905090565b60008073ffffffffffffffffffffffffffffffffffffffff166002600084815260200190815260200160002060009054906101000a900473ffffffffffffffffffffffffffffffffffffffff1673ffffffffffffffffffffffffffffffffffffffff1614159050919050565b816004600083815260200190815260200160002060006101000a81548173ffffffffffffffffffffffffffffffffffffffff021916908373ffffffffffffffffffffffffffffffffffffffff160217905550808273ffffffffffffffffffffffffffffffffffffffff1661232a83611258565b73ffffffffffffffffffffffffffffffffffffffff167f8c5be1e5ebec7d5bd14f71427d1e84f3dd0314c0f7b2291e5b200ac8c7c3b92560405160405180910390a45050565b600061237b8261224b565b6123ba576040517f08c379a00000000000000000000000000000000000000000000000000000000081526004016123b1906142ac565b60405180910390fd5b60006123c583611258565b90508073ffffffffffffffffffffffffffffffffffffffff168473ffffffffffffffffffffffffffffffffffffffff16148061243457508373ffffffffffffffffffffffffffffffffffffffff1661241c84610a9c565b73ffffffffffffffffffffffffffffffffffffffff16145b806124455750612444818561203d565b5b91505092915050565b8273ffffffffffffffffffffffffffffffffffffffff1661246e82611258565b73ffffffffffffffffffffffffffffffffffffffff16146124c4576040517f08c379a00000000000000000000000000000000000000000000000000000000081526004016124bb906143cc565b60405180910390fd5b600073ffffffffffffffffffffffffffffffffffffffff168273ffffffffffffffffffffffffffffffffffffffff161415612534576040517f08c379a000000000000000000000000000000000000000000000000000000000815260040161252b9061422c565b60405180910390fd5b61253f838383612be5565b61254a6000826122b7565b6001600360008573ffffffffffffffffffffffffffffffffffffffff1673ffffffffffffffffffffffffffffffffffffffff168152602001908152602001600020600082825461259a91906146e9565b925050819055506001600360008473ffffffffffffffffffffffffffffffffffffffff1673ffffffffffffffffffffffffffffffffffffffff16815260200190815260200160002060008282546125f19190614608565b92505081905550816002600083815260200190815260200160002060006101000a81548173ffffffffffffffffffffffffffffffffffffffff021916908373ffffffffffffffffffffffffffffffffffffffff160217905550808273ffffffffffffffffffffffffffffffffffffffff168473ffffffffffffffffffffffffffffffffffffffff167fddf252ad1be2c89b69c2b068fc378daa952ba7f163c4a11628f55a4df523b3ef60405160405180910390a4505050565b6000600b60009054906101000a900473ffffffffffffffffffffffffffffffffffffffff16905081600b60006101000a81548173ffffffffffffffffffffffffffffffffffffffff021916908373ffffffffffffffffffffffffffffffffffffffff1602179055508173ffffffffffffffffffffffffffffffffffffffff168173ffffffffffffffffffffffffffffffffffffffff167f8be0079c531659141344cd1fd0a4f28419497f9722a3daafe3b4186f6b6457e060405160405180910390a35050565b6000818361277e9190614608565b905092915050565b60008183612794919061468f565b905092915050565b6127b6828260405180602001604052806000815250612bf5565b5050565b600081836127c891906148ed565b905092915050565b6127db84848461244e565b6127e784848484612c50565b612826576040517f08c379a000000000000000000000000000000000000000000000000000000000815260040161281d9061416c565b60405180910390fd5b50505050565b60606000821415612874576040518060400160405280600181526020017f300000000000000000000000000000000000000000000000000000000000000081525090506129f3565b600082905060005b600082146128a657808061288f9061487a565b915050600a8261289f919061465e565b915061287c565b60008167ffffffffffffffff8111156128e8577f4e487b7100000000000000000000000000000000000000000000000000000000600052604160045260246000fd5b6040519080825280601f01601f19166020018201604052801561291a5781602001600182028036833780820191505090505b5090505b600085146129ec5760018261293391906146e9565b9150600a8561294291906148ed565b603061294e9190614608565b7f0100000000000000000000000000000000000000000000000000000000000000028183815181106129a9577f4e487b7100000000000000000000000000000000000000000000000000000000600052603260045260246000fd5b60200101907effffffffffffffffffffffffffffffffffffffffffffffffffffffffffffff1916908160001a905350600a856129e5919061465e565b945061291e565b8093505050505b919050565b803073ffffffffffffffffffffffffffffffffffffffff16311015612a52576040517f08c379a0000000000000000000000000000000000000000000000000000000008152600401612a499061428c565b60405180910390fd5b60008273ffffffffffffffffffffffffffffffffffffffff1682604051612a7890614021565b60006040518083038185875af1925050503d8060008114612ab5576040519150601f19603f3d011682016040523d82523d6000602084013e612aba565b606091505b5050905080612afe576040517f08c379a0000000000000000000000000000000000000000000000000000000008152600401612af59061426c565b60405180910390fd5b505050565b60007f80ac58cd000000000000000000000000000000000000000000000000000000007bffffffffffffffffffffffffffffffffffffffffffffffffffffffff1916827bffffffffffffffffffffffffffffffffffffffffffffffffffffffff19161480612bce57507f5b5e139f000000000000000000000000000000000000000000000000000000007bffffffffffffffffffffffffffffffffffffffffffffffffffffffff1916827bffffffffffffffffffffffffffffffffffffffffffffffffffffffff1916145b80612bde5750612bdd82612e1f565b5b9050919050565b612bf0838383612e89565b505050565b612bff8383612f9d565b612c0c6000848484612c50565b612c4b576040517f08c379a0000000000000000000000000000000000000000000000000000000008152600401612c429061416c565b60405180910390fd5b505050565b6000612c718473ffffffffffffffffffffffffffffffffffffffff1661316b565b15612e12578373ffffffffffffffffffffffffffffffffffffffff1663150b7a02612c9a612243565b8786866040518563ffffffff167c0100000000000000000000000000000000000000000000000000000000028152600401612cd89493929190614051565b602060405180830381600087803b158015612cf257600080fd5b505af1925050508015612d2357506040513d601f19601f82011682018060405250810190612d2091906139cf565b60015b612da6573d8060008114612d53576040519150601f19603f3d011682016040523d82523d6000602084013e612d58565b606091505b50600081511415612d9e576040517f08c379a0000000000000000000000000000000000000000000000000000000008152600401612d959061416c565b60405180910390fd5b805181602001fd5b63150b7a027c0100000000000000000000000000000000000000000000000000000000027bffffffffffffffffffffffffffffffffffffffffffffffffffffffff1916817bffffffffffffffffffffffffffffffffffffffffffffffffffffffff191614915050612e17565b600190505b949350505050565b60007f01ffc9a7000000000000000000000000000000000000000000000000000000007bffffffffffffffffffffffffffffffffffffffffffffffffffffffff1916827bffffffffffffffffffffffffffffffffffffffffffffffffffffffff1916149050919050565b612e9483838361317e565b600073ffffffffffffffffffffffffffffffffffffffff168373ffffffffffffffffffffffffffffffffffffffff161415612ed757612ed281613183565b612f16565b8173ffffffffffffffffffffffffffffffffffffffff168373ffffffffffffffffffffffffffffffffffffffff1614612f1557612f1483826131cc565b5b5b600073ffffffffffffffffffffffffffffffffffffffff168273ffffffffffffffffffffffffffffffffffffffff161415612f5957612f5481613339565b612f98565b8273ffffffffffffffffffffffffffffffffffffffff168273ffffffffffffffffffffffffffffffffffffffff1614612f9757612f96828261347c565b5b5b505050565b600073ffffffffffffffffffffffffffffffffffffffff168273ffffffffffffffffffffffffffffffffffffffff16141561300d576040517f08c379a00000000000000000000000000000000000000000000000000000000081526004016130049061434c565b60405180910390fd5b6130168161224b565b15613056576040517f08c379a000000000000000000000000000000000000000000000000000000000815260040161304d906141cc565b60405180910390fd5b61306260008383612be5565b6001600360008473ffffffffffffffffffffffffffffffffffffffff1673ffffffffffffffffffffffffffffffffffffffff16815260200190815260200160002060008282546130b29190614608565b92505081905550816002600083815260200190815260200160002060006101000a81548173ffffffffffffffffffffffffffffffffffffffff021916908373ffffffffffffffffffffffffffffffffffffffff160217905550808273ffffffffffffffffffffffffffffffffffffffff16600073ffffffffffffffffffffffffffffffffffffffff167fddf252ad1be2c89b69c2b068fc378daa952ba7f163c4a11628f55a4df523b3ef60405160405180910390a45050565b600080823b905060008111915050919050565b505050565b6008805490506009600083815260200190815260200160002081905550600881908060018154018082558091505060019003906000526020600020016000909190919091505550565b600060016131d98461130a565b6131e391906146e9565b90506000600760008481526020019081526020016000205490508181146132c8576000600660008673ffffffffffffffffffffffffffffffffffffffff1673ffffffffffffffffffffffffffffffffffffffff168152602001908152602001600020600084815260200190815260200160002054905080600660008773ffffffffffffffffffffffffffffffffffffffff1673ffffffffffffffffffffffffffffffffffffffff168152602001908152602001600020600084815260200190815260200160002081905550816007600083815260200190815260200160002081905550505b6007600084815260200190815260200160002060009055600660008573ffffffffffffffffffffffffffffffffffffffff1673ffffffffffffffffffffffffffffffffffffffff16815260200190815260200160002060008381526020019081526020016000206000905550505050565b6000600160088054905061334d91906146e9565b90506000600960008481526020019081526020016000205490506000600883815481106133a3577f4e487b7100000000000000000000000000000000000000000000000000000000600052603260045260246000fd5b9060005260206000200154905080600883815481106133eb577f4e487b7100000000000000000000000000000000000000000000000000000000600052603260045260246000fd5b906000526020600020018190555081600960008381526020019081526020016000208190555060096000858152602001908152602001600020600090556008805480613460577f4e487b7100000000000000000000000000000000000000000000000000000000600052603160045260246000fd5b6001900381819060005260206000200160009055905550505050565b60006134878361130a565b905081600660008573ffffffffffffffffffffffffffffffffffffffff1673ffffffffffffffffffffffffffffffffffffffff168152602001908152602001600020600083815260200190815260200160002081905550806007600084815260200190815260200160002081905550505050565b82805461350790614817565b90600052602060002090601f0160209004810192826135295760008555613570565b82601f1061354257805160ff1916838001178555613570565b82800160010185558215613570579182015b8281111561356f578251825591602001919060010190613554565b5b50905061357d9190613581565b5090565b5b8082111561359a576000816000905550600101613582565b5090565b60006135b16135ac8461452c565b614507565b905080838252602082019050828560208602820111156135d057600080fd5b60005b8581101561360057816135e68882613686565b8452602084019350602083019250506001810190506135d3565b5050509392505050565b600061361d61361884614558565b614507565b90508281526020810184848401111561363557600080fd5b6136408482856147d5565b509392505050565b600061365b61365684614589565b614507565b90508281526020810184848401111561367357600080fd5b61367e8482856147d5565b509392505050565b6000813590506136958161521d565b92915050565b6000813590506136aa81615234565b92915050565b600082601f8301126136c157600080fd5b81356136d184826020860161359e565b91505092915050565b6000813590506136e98161524b565b92915050565b6000813590506136fe81615262565b92915050565b60008151905061371381615262565b92915050565b600082601f83011261372a57600080fd5b813561373a84826020860161360a565b91505092915050565b600082601f83011261375457600080fd5b8135613764848260208601613648565b91505092915050565b60008135905061377c81615279565b92915050565b60006020828403121561379457600080fd5b60006137a284828501613686565b91505092915050565b6000602082840312156137bd57600080fd5b60006137cb8482850161369b565b91505092915050565b600080604083850312156137e757600080fd5b60006137f585828601613686565b925050602061380685828601613686565b9150509250929050565b60008060006060848603121561382557600080fd5b600061383386828701613686565b935050602061384486828701613686565b92505060406138558682870161376d565b9150509250925092565b6000806000806080858703121561387557600080fd5b600061388387828801613686565b945050602061389487828801613686565b93505060406138a58782880161376d565b925050606085013567ffffffffffffffff8111156138c257600080fd5b6138ce87828801613719565b91505092959194509250565b600080604083850312156138ed57600080fd5b60006138fb85828601613686565b925050602061390c858286016136da565b9150509250929050565b6000806040838503121561392957600080fd5b600061393785828601613686565b92505060206139488582860161376d565b9150509250929050565b6000806040838503121561396557600080fd5b600083013567ffffffffffffffff81111561397f57600080fd5b61398b858286016136b0565b925050602061399c8582860161376d565b9150509250929050565b6000602082840312156139b857600080fd5b60006139c6848285016136ef565b91505092915050565b6000602082840312156139e157600080fd5b60006139ef84828501613704565b91505092915050565b600060208284031215613a0a57600080fd5b600082013567ffffffffffffffff811115613a2457600080fd5b613a3084828501613743565b91505092915050565b600060208284031215613a4b57600080fd5b6000613a598482850161376d565b91505092915050565b600080600060608486031215613a7757600080fd5b6000613a858682870161376d565b935050602084013567ffffffffffffffff811115613aa257600080fd5b613aae86828701613743565b925050604084013567ffffffffffffffff811115613acb57600080fd5b613ad786828701613743565b9150509250925092565b613aea8161471d565b82525050565b613af981614741565b82525050565b6000613b0a826145ba565b613b1481856145d0565b9350613b248185602086016147e4565b613b2d81614a09565b840191505092915050565b613b41816147c3565b82525050565b6000613b52826145c5565b613b5c81856145ec565b9350613b6c8185602086016147e4565b613b7581614a09565b840191505092915050565b6000613b8b826145c5565b613b9581856145fd565b9350613ba58185602086016147e4565b80840191505092915050565b6000613bbe602a836145ec565b9150613bc982614a1a565b604082019050919050565b6000613be1602b836145ec565b9150613bec82614a69565b604082019050919050565b6000613c046032836145ec565b9150613c0f82614ab8565b604082019050919050565b6000613c276036836145ec565b9150613c3282614b07565b604082019050919050565b6000613c4a6026836145ec565b9150613c5582614b56565b604082019050919050565b6000613c6d601c836145ec565b9150613c7882614ba5565b602082019050919050565b6000613c906015836145ec565b9150613c9b82614bce565b602082019050919050565b6000613cb36044836145ec565b9150613cbe82614bf7565b606082019050919050565b6000613cd66024836145ec565b9150613ce182614c6c565b604082019050919050565b6000613cf96019836145ec565b9150613d0482614cbb565b602082019050919050565b6000613d1c603a836145ec565b9150613d2782614ce4565b604082019050919050565b6000613d3f601d836145ec565b9150613d4a82614d33565b602082019050919050565b6000613d62602c836145ec565b9150613d6d82614d5c565b604082019050919050565b6000613d856038836145ec565b9150613d9082614dab565b604082019050919050565b6000613da8602a836145ec565b9150613db382614dfa565b604082019050919050565b6000613dcb6029836145ec565b9150613dd682614e49565b604082019050919050565b6000613dee6028836145ec565b9150613df982614e98565b604082019050919050565b6000613e116020836145ec565b9150613e1c82614ee7565b602082019050919050565b6000613e34602c836145ec565b9150613e3f82614f10565b604082019050919050565b6000613e576017836145ec565b9150613e6282614f5f565b602082019050919050565b6000613e7a6020836145ec565b9150613e8582614f88565b602082019050919050565b6000613e9d6029836145ec565b9150613ea882614fb1565b604082019050919050565b6000613ec06021836145ec565b9150613ecb82615000565b604082019050919050565b6000613ee36000836145e1565b9150613eee8261504f565b600082019050919050565b6000613f066031836145ec565b9150613f1182615052565b604082019050919050565b6000613f296020836145ec565b9150613f34826150a1565b602082019050919050565b6000613f4c601e836145ec565b9150613f57826150ca565b602082019050919050565b6000613f6f602c836145ec565b9150613f7a826150f3565b604082019050919050565b6000613f926039836145ec565b9150613f9d82615142565b604082019050919050565b6000613fb5601f836145ec565b9150613fc082615191565b602082019050919050565b6000613fd86022836145ec565b9150613fe3826151ba565b604082019050919050565b613ff7816147ac565b82525050565b60006140098285613b80565b91506140158284613b80565b91508190509392505050565b600061402c82613ed6565b9150819050919050565b600060208201905061404b6000830184613ae1565b92915050565b60006080820190506140666000830187613ae1565b6140736020830186613ae1565b6140806040830185613fee565b81810360608301526140928184613aff565b905095945050505050565b60006020820190506140b26000830184613af0565b92915050565b60006020820190506140cd6000830184613b38565b92915050565b600060208201905081810360008301526140ed8184613b47565b905092915050565b6000604082019050818103600083015261410f8185613b47565b905081810360208301526141238184613b47565b90509392505050565b6000602082019050818103600083015261414581613bb1565b9050919050565b6000602082019050818103600083015261416581613bd4565b9050919050565b6000602082019050818103600083015261418581613bf7565b9050919050565b600060208201905081810360008301526141a581613c1a565b9050919050565b600060208201905081810360008301526141c581613c3d565b9050919050565b600060208201905081810360008301526141e581613c60565b9050919050565b6000602082019050818103600083015261420581613c83565b9050919050565b6000602082019050818103600083015261422581613ca6565b9050919050565b6000602082019050818103600083015261424581613cc9565b9050919050565b6000602082019050818103600083015261426581613cec565b9050919050565b6000602082019050818103600083015261428581613d0f565b9050919050565b600060208201905081810360008301526142a581613d32565b9050919050565b600060208201905081810360008301526142c581613d55565b9050919050565b600060208201905081810360008301526142e581613d78565b9050919050565b6000602082019050818103600083015261430581613d9b565b9050919050565b6000602082019050818103600083015261432581613dbe565b9050919050565b6000602082019050818103600083015261434581613de1565b9050919050565b6000602082019050818103600083015261436581613e04565b9050919050565b6000602082019050818103600083015261438581613e27565b9050919050565b600060208201905081810360008301526143a581613e4a565b9050919050565b600060208201905081810360008301526143c581613e6d565b9050919050565b600060208201905081810360008301526143e581613e90565b9050919050565b6000602082019050818103600083015261440581613eb3565b9050919050565b6000602082019050818103600083015261442581613ef9565b9050919050565b6000602082019050818103600083015261444581613f1c565b9050919050565b6000602082019050818103600083015261446581613f3f565b9050919050565b6000602082019050818103600083015261448581613f62565b9050919050565b600060208201905081810360008301526144a581613f85565b9050919050565b600060208201905081810360008301526144c581613fa8565b9050919050565b600060208201905081810360008301526144e581613fcb565b9050919050565b60006020820190506145016000830184613fee565b92915050565b6000614511614522565b905061451d8282614849565b919050565b6000604051905090565b600067ffffffffffffffff821115614547576145466149da565b5b602082029050602081019050919050565b600067ffffffffffffffff821115614573576145726149da565b5b61457c82614a09565b9050602081019050919050565b600067ffffffffffffffff8211156145a4576145a36149da565b5b6145ad82614a09565b9050602081019050919050565b600081519050919050565b600081519050919050565b600082825260208201905092915050565b600081905092915050565b600082825260208201905092915050565b600081905092915050565b6000614613826147ac565b915061461e836147ac565b9250827fffffffffffffffffffffffffffffffffffffffffffffffffffffffffffffffff038211156146535761465261491e565b5b828201905092915050565b6000614669826147ac565b9150614674836147ac565b9250826146845761468361494d565b5b828204905092915050565b600061469a826147ac565b91506146a5836147ac565b9250817fffffffffffffffffffffffffffffffffffffffffffffffffffffffffffffffff04831182151516156146de576146dd61491e565b5b828202905092915050565b60006146f4826147ac565b91506146ff836147ac565b9250828210156147125761471161491e565b5b828203905092915050565b60006147288261478c565b9050919050565b600061473a8261478c565b9050919050565b60008115159050919050565b60007fffffffff0000000000000000000000000000000000000000000000000000000082169050919050565b600081905061478782615209565b919050565b600073ffffffffffffffffffffffffffffffffffffffff82169050919050565b6000819050919050565b600060ff82169050919050565b60006147ce82614779565b9050919050565b82818337600083830152505050565b60005b838110156148025780820151818401526020810190506147e7565b83811115614811576000848401525b50505050565b6000600282049050600182168061482f57607f821691505b60208210811415614843576148426149ab565b5b50919050565b61485282614a09565b810181811067ffffffffffffffff82111715614871576148706149da565b5b80604052505050565b6000614885826147ac565b91507fffffffffffffffffffffffffffffffffffffffffffffffffffffffffffffffff8214156148b8576148b761491e565b5b600182019050919050565b60006148ce826147b6565b915060ff8214156148e2576148e161491e565b5b600182019050919050565b60006148f8826147ac565b9150614903836147ac565b9250826149135761491261494d565b5b828206905092915050565b7f4e487b7100000000000000000000000000000000000000000000000000000000600052601160045260246000fd5b7f4e487b7100000000000000000000000000000000000000000000000000000000600052601260045260246000fd5b7f4e487b7100000000000000000000000000000000000000000000000000000000600052602160045260246000fd5b7f4e487b7100000000000000000000000000000000000000000000000000000000600052602260045260246000fd5b7f4e487b7100000000000000000000000000000000000000000000000000000000600052604160045260246000fd5b6000601f19601f8301169050919050565b7f46697273742074696d6527732066726565206d7920666c75666679206c69747460008201527f6c6520667269656e642e00000000000000000000000000000000000000000000602082015250565b7f455243373231456e756d657261626c653a206f776e657220696e646578206f7560008201527f74206f6620626f756e6473000000000000000000000000000000000000000000602082015250565b7f4552433732313a207472616e7366657220746f206e6f6e20455243373231526560008201527f63656976657220696d706c656d656e7465720000000000000000000000000000602082015250565b7f546869732049504653206275636b657420697320696d6d7561626c6520616e6460008201527f2063616e206f6e6c7920626520736574206f6e63652e00000000000000000000602082015250565b7f4f776e61626c653a206e6577206f776e657220697320746865207a65726f206160008201527f6464726573730000000000000000000000000000000000000000000000000000602082015250565b7f4552433732313a20746f6b656e20616c7265616479206d696e74656400000000600082015250565b7f546869732069736e277420796f757220464c55462e0000000000000000000000600082015250565b7f4865792c20796f75277265206e6f7420616c6c6f77656420746f20627579207460008201527f686973206d616e7920464c55467320647572696e6720746865207072652d706160208201527f7274792e00000000000000000000000000000000000000000000000000000000604082015250565b7f4552433732313a207472616e7366657220746f20746865207a65726f2061646460008201527f7265737300000000000000000000000000000000000000000000000000000000602082015250565b7f4552433732313a20617070726f766520746f2063616c6c657200000000000000600082015250565b7f416464726573733a20756e61626c6520746f2073656e642076616c75652c207260008201527f6563697069656e74206d61792068617665207265766572746564000000000000602082015250565b7f416464726573733a20696e73756666696369656e742062616c616e6365000000600082015250565b7f4552433732313a206f70657261746f7220717565727920666f72206e6f6e657860008201527f697374656e7420746f6b656e0000000000000000000000000000000000000000602082015250565b7f4552433732313a20617070726f76652063616c6c6572206973206e6f74206f7760008201527f6e6572206e6f7220617070726f76656420666f7220616c6c0000000000000000602082015250565b7f4552433732313a2062616c616e636520717565727920666f7220746865207a6560008201527f726f206164647265737300000000000000000000000000000000000000000000602082015250565b7f4552433732313a206f776e657220717565727920666f72206e6f6e657869737460008201527f656e7420746f6b656e0000000000000000000000000000000000000000000000602082015250565b7f536f7272792c2074686572652773206e6f742074686174206d616e7920464c5560008201527f4673206c6566742e000000000000000000000000000000000000000000000000602082015250565b7f4552433732313a206d696e7420746f20746865207a65726f2061646472657373600082015250565b7f4552433732313a20617070726f76656420717565727920666f72206e6f6e657860008201527f697374656e7420746f6b656e0000000000000000000000000000000000000000602082015250565b7f464c554673206172656e27742072656164792079657421000000000000000000600082015250565b7f4f776e61626c653a2063616c6c6572206973206e6f7420746865206f776e6572600082015250565b7f4552433732313a207472616e73666572206f6620746f6b656e2074686174206960008201527f73206e6f74206f776e0000000000000000000000000000000000000000000000602082015250565b7f4552433732313a20617070726f76616c20746f2063757272656e74206f776e6560008201527f7200000000000000000000000000000000000000000000000000000000000000602082015250565b50565b7f4552433732313a207472616e736665722063616c6c6572206973206e6f74206f60008201527f776e6572206e6f7220617070726f766564000000000000000000000000000000602082015250565b7f4865792c20746861742773206e6f74207468652072696768742070726963652e600082015250565b7f5374617274696e6720696e64657820697320616c7265616479207365742e0000600082015250565b7f455243373231456e756d657261626c653a20676c6f62616c20696e646578206f60008201527f7574206f6620626f756e64730000000000000000000000000000000000000000602082015250565b7f4865792c2074686174277320746f6f206d616e7920464c5546732e205361766560008201527f20736f6d6520666f72207468652072657374206f662075732100000000000000602082015250565b7f5265656e7472616e637947756172643a207265656e7472616e742063616c6c00600082015250565b7f497420636f73747320746f206372656174652061206e6577206964656e74697460008201527f792e000000000000000000000000000000000000000000000000000000000000602082015250565b6003811061521a5761521961497c565b5b50565b6152268161471d565b811461523157600080fd5b50565b61523d8161472f565b811461524857600080fd5b50565b61525481614741565b811461525f57600080fd5b50565b61526b8161474d565b811461527657600080fd5b50565b615282816147ac565b811461528d57600080fd5b5056fe68747470733a2f2f666c75662d736974652e76657263656c2e6170702f6170692f746f6b656e2fa26469706673582212206e7d71584ab8536aaa96ed53b9799114310c14c5e3de55d6bac84b2bf661147c64736f6c63430008020033",
  "immutableReferences": {},
  "source": "// SPDX-License-Identifier: MIT\n\n\n\npragma solidity ^0.8.2;\n\nimport \"@openzeppelin/contracts/token/ERC721/ERC721.sol\";\nimport \"@openzeppelin/contracts/token/ERC721/extensions/ERC721Enumerable.sol\";\nimport \"@openzeppelin/contracts/token/ERC721/extensions/ERC721URIStorage.sol\";\nimport \"@openzeppelin/contracts/utils/Strings.sol\";\nimport \"@openzeppelin/contracts/access/Ownable.sol\";\nimport \"@openzeppelin/contracts/utils/Address.sol\";\nimport \"@openzeppelin/contracts/utils/math/SafeMath.sol\";\nimport \"@openzeppelin/contracts/security/ReentrancyGuard.sol\";\n\n\ncontract PolarPals is ERC721, ERC721Enumerable, ERC721URIStorage, Ownable, ReentrancyGuard {\n\n    using Address for address payable;\n    using SafeMath for uint256;\n\n    uint256 public constant MAX_FLUFS = 10000;\n    uint256 public constant MAX_PURCHASE = 6;\n    uint256 public constant AMOUNT_RESERVED = 120;\n    uint256 public constant FLUF_PRICE = 9E16; // 0.09ETH\n    uint256 public constant RENAME_PRICE = 9E15; // 0.009ETH\n    string public constant TOKEN_URI_BASE = \"https://fluf-site.vercel.app/api/token/\"; \n\n\n    enum State {\n        Setup,\n        PreParty,\n        Party\n    }\n\n    mapping(address => uint256) private _authorised;\n\n    mapping(uint256 => bool) private _nameChanged;\n\n\n    State private _state;\n\n\n    string private _immutableIPFSBucket;\n    string private _mutableIPFSBucket;\n\n    uint256 _nextTokenId;\n    uint256 _startingIndex;\n\n\n      //Credit to 0xc2c747e0f7004f9e8817db2ca4997657a7746928\n    function setStartingIndexAndMintReserve(address reserveAddress) public {\n        require(_startingIndex == 0, \"Starting index is already set.\");\n        \n        _startingIndex = uint256(blockhash(block.number - 1)) % MAX_FLUFS;\n   \n        // Prevent default sequence\n        if (_startingIndex == 0) {\n            _startingIndex = _startingIndex.add(1);\n        }\n\n        _nextTokenId = _startingIndex;\n\n\n        for(uint256 i = 0; i < AMOUNT_RESERVED; i++) {\n            _safeMint(reserveAddress, _nextTokenId); \n            _nextTokenId = _nextTokenId.add(1).mod(MAX_FLUFS); \n        }\n    }\n\n\tevent NameAndDescriptionChanged(uint256 indexed _tokenId, string _name, string _description);\n\n  \n    constructor() ERC721(\"PolarPals\",\"PALS\") {\n        _state = State.Setup;\n    }\n\n    function setImmutableIPFSBucket(string memory immutableIPFSBucket_) public onlyOwner {\n        require(bytes(_immutableIPFSBucket).length == 0, \"This IPFS bucket is immuable and can only be set once.\");\n        _immutableIPFSBucket = immutableIPFSBucket_;\n    }\n\n    function setMutableIPFSBucket(string memory mutableIPFSBucket_) public onlyOwner {\n        _mutableIPFSBucket = mutableIPFSBucket_;\n    }\n\n\n    function changeNameAndDescription(uint256 tokenId, string memory newName, string memory newDescription) public payable {\n        address owner = ERC721.ownerOf(tokenId);\n\n        require(\n            _msgSender() == owner,\n            \"This isn't your FLUF.\"\n        );\n\n        uint256 amountPaid = msg.value;\n\n        if(_nameChanged[tokenId]) {\n            require(amountPaid == RENAME_PRICE, \"It costs to create a new identity.\");\n        } else {\n            require(amountPaid == 0, \"First time's free my fluffy little friend.\");\n            _nameChanged[tokenId] = true;\n        }\n\n        emit NameAndDescriptionChanged(tokenId, newName, newDescription);\n    }\n\n\n    function _beforeTokenTransfer(address from, address to, uint256 tokenId)\n        internal\n        override(ERC721, ERC721Enumerable)\n    {\n        super._beforeTokenTransfer(from, to, tokenId);\n    }\n\n    function _burn(uint256 tokenId) internal override(ERC721, ERC721URIStorage) {\n        super._burn(tokenId);\n    }\n \n\n\n    function baseTokenURI() virtual public view returns (string memory) {\n        return TOKEN_URI_BASE;\n    }\n\n    function state() virtual public view returns (State) {\n        return _state;\n    }\n\n    function immutableIPFSBucket() virtual public view returns (string memory) {\n        return _immutableIPFSBucket;\n    }\n\n    function mutableIPFSBucket() virtual public view returns (string memory) {\n        return _mutableIPFSBucket;\n    }\n\n    function tokenURI(uint256 tokenId)\n        public\n        view\n        override(ERC721, ERC721URIStorage)\n        returns (string memory)\n    {\n\n        return string(abi.encodePacked(baseTokenURI(), Strings.toString(tokenId)));\n \n    }\n\n    function supportsInterface(bytes4 interfaceId)\n        public\n        view\n        override(ERC721, ERC721Enumerable)\n        returns (bool)\n    {\n        return super.supportsInterface(interfaceId);\n    }\n\n\n    function startPreParty() public onlyOwner {\n        require(_state == State.Setup);\n        _state = State.PreParty;\n    }\n\n    function setStateToParty() public onlyOwner {\n        _state = State.Party;\n    }\n\n\n    function mintFluf(address human, uint256 amountOfFlufs) public nonReentrant payable virtual returns (uint256) {\n\n        require(_state != State.Setup, \"FLUFs aren't ready yet!\");\n        require(amountOfFlufs <= MAX_PURCHASE, \"Hey, that's too many FLUFs. Save some for the rest of us!\");\n\n        require(totalSupply().add(amountOfFlufs) <= MAX_FLUFS, \"Sorry, there's not that many FLUFs left.\");\n        require(FLUF_PRICE.mul(amountOfFlufs) <= msg.value, \"Hey, that's not the right price.\");\n\n\n        if(_state == State.PreParty) {\n            require(_authorised[human] >= amountOfFlufs, \"Hey, you're not allowed to buy this many FLUFs during the pre-party.\");\n            _authorised[human] -= amountOfFlufs;\n        }\n\n        uint256 firstFlufRecieved = _nextTokenId;\n\n        for(uint i = 0; i < amountOfFlufs; i++) {\n            _safeMint(human, _nextTokenId); \n            _nextTokenId = _nextTokenId.add(1).mod(MAX_FLUFS); \n        }\n\n        return firstFlufRecieved;\n\n    }\n\n     function withdrawAllEth(address payable payee) public virtual onlyOwner {\n        payee.sendValue(address(this).balance);\n    }\n\n\n    function authoriseFluf(address human, uint256 amountOfFlufs)\n        public\n        onlyOwner\n    {\n      _authorised[human] += amountOfFlufs;\n    }\n\n\n    function authoriseFlufBatch(address[] memory humans, uint256 amountOfFlufs)\n        public\n        onlyOwner\n    {\n        for (uint8 i = 0; i < humans.length; i++) {\n            authoriseFluf(humans[i], amountOfFlufs);\n        }\n    }\n\n}",
  "sourcePath": "/Users/teancum/bear/contracts/polarpals.sol",
  "compiler": {
    "name": "solc",
    "version": "0.8.2+commit.661d1103.Linux.g++"
  },
  "schemaVersion": "3.4.1",
  "updatedAt": "2021-08-31T20:48:29.640Z",
  "devdoc": {
    "kind": "dev",
    "methods": {
      "approve(address,uint256)": {
        "details": "See {IERC721-approve}."
      },
      "balanceOf(address)": {
        "details": "See {IERC721-balanceOf}."
      },
      "getApproved(uint256)": {
        "details": "See {IERC721-getApproved}."
      },
      "isApprovedForAll(address,address)": {
        "details": "See {IERC721-isApprovedForAll}."
      },
      "name()": {
        "details": "See {IERC721Metadata-name}."
      },
      "owner()": {
        "details": "Returns the address of the current owner."
      },
      "ownerOf(uint256)": {
        "details": "See {IERC721-ownerOf}."
      },
      "renounceOwnership()": {
        "details": "Leaves the contract without owner. It will not be possible to call `onlyOwner` functions anymore. Can only be called by the current owner. NOTE: Renouncing ownership will leave the contract without an owner, thereby removing any functionality that is only available to the owner."
      },
      "safeTransferFrom(address,address,uint256)": {
        "details": "See {IERC721-safeTransferFrom}."
      },
      "safeTransferFrom(address,address,uint256,bytes)": {
        "details": "See {IERC721-safeTransferFrom}."
      },
      "setApprovalForAll(address,bool)": {
        "details": "See {IERC721-setApprovalForAll}."
      },
      "symbol()": {
        "details": "See {IERC721Metadata-symbol}."
      },
      "tokenByIndex(uint256)": {
        "details": "See {IERC721Enumerable-tokenByIndex}."
      },
      "tokenOfOwnerByIndex(address,uint256)": {
        "details": "See {IERC721Enumerable-tokenOfOwnerByIndex}."
      },
      "totalSupply()": {
        "details": "See {IERC721Enumerable-totalSupply}."
      },
      "transferFrom(address,address,uint256)": {
        "details": "See {IERC721-transferFrom}."
      },
      "transferOwnership(address)": {
        "details": "Transfers ownership of the contract to a new account (`newOwner`). Can only be called by the current owner."
      }
    },
    "version": 1
  },
  "userdoc": {
    "kind": "user",
    "methods": {},
    "version": 1
  }
}